{
  "contractName": "VehicleMarketplace",
  "abi": [
    {
      "inputs": [
        {
          "internalType": "address",
          "name": "VRTAddress",
          "type": "address"
        }
      ],
      "stateMutability": "nonpayable",
      "type": "constructor"
    },
    {
      "anonymous": false,
      "inputs": [
        {
          "indexed": true,
          "internalType": "uint256",
          "name": "ticketId",
          "type": "uint256"
        },
        {
          "indexed": false,
          "internalType": "address",
          "name": "seller",
          "type": "address"
        },
        {
          "indexed": false,
          "internalType": "uint256",
          "name": "vehicleId",
          "type": "uint256"
        }
      ],
      "name": "Cancel",
      "type": "event"
    },
    {
      "anonymous": false,
      "inputs": [
        {
          "indexed": true,
          "internalType": "uint256",
          "name": "ticketId",
          "type": "uint256"
        },
        {
          "indexed": false,
          "internalType": "address",
          "name": "seller",
          "type": "address"
        },
        {
          "indexed": false,
          "internalType": "address",
          "name": "tokenContract",
          "type": "address"
        },
        {
          "indexed": false,
          "internalType": "uint256",
          "name": "vehicleId",
          "type": "uint256"
        },
        {
          "indexed": false,
          "internalType": "uint256",
          "name": "price",
          "type": "uint256"
        }
      ],
      "name": "OnSale",
      "type": "event"
    },
    {
      "anonymous": false,
      "inputs": [
        {
          "indexed": true,
          "internalType": "uint256",
          "name": "ticketId",
          "type": "uint256"
        },
        {
          "indexed": false,
          "internalType": "address",
          "name": "buyer",
          "type": "address"
        },
        {
          "indexed": false,
          "internalType": "address",
          "name": "tokenContract",
          "type": "address"
        },
        {
          "indexed": false,
          "internalType": "uint256",
          "name": "vehicleId",
          "type": "uint256"
        },
        {
          "indexed": false,
          "internalType": "uint256",
          "name": "price",
          "type": "uint256"
        }
      ],
      "name": "Sold",
      "type": "event"
    },
    {
      "inputs": [],
      "name": "listedItemsCount",
      "outputs": [
        {
          "internalType": "uint256",
          "name": "",
          "type": "uint256"
        }
      ],
      "stateMutability": "view",
      "type": "function",
      "constant": true
    },
    {
      "inputs": [
        {
          "internalType": "uint256",
          "name": "vehicleId",
          "type": "uint256"
        }
      ],
      "name": "isVehicleOnSale",
      "outputs": [
        {
          "internalType": "bool",
          "name": "",
          "type": "bool"
        }
      ],
      "stateMutability": "view",
      "type": "function",
      "constant": true
    },
    {
      "inputs": [
        {
          "internalType": "uint256",
          "name": "vehicleId",
          "type": "uint256"
        },
        {
          "internalType": "uint256",
          "name": "price",
          "type": "uint256"
        }
      ],
      "name": "putVehicleOnSale",
      "outputs": [],
      "stateMutability": "payable",
      "type": "function",
      "payable": true
    },
    {
      "inputs": [
        {
          "internalType": "uint256",
          "name": "vehicleId",
          "type": "uint256"
        }
      ],
      "name": "getVehicleSaleTicket",
      "outputs": [
        {
          "components": [
            {
              "internalType": "address",
              "name": "seller",
              "type": "address"
            },
            {
              "internalType": "contract IERC721",
              "name": "tokenContract",
              "type": "address"
            },
            {
              "internalType": "uint256",
              "name": "vehicleId",
              "type": "uint256"
            },
            {
              "internalType": "uint256",
              "name": "price",
              "type": "uint256"
            },
            {
              "internalType": "enum VehicleMarketplace.SaleTicketStatus",
              "name": "status",
              "type": "uint8"
            }
          ],
          "internalType": "struct VehicleMarketplace.SaleTicket",
          "name": "",
          "type": "tuple"
        }
      ],
      "stateMutability": "view",
      "type": "function",
      "constant": true
    },
    {
      "inputs": [
        {
          "internalType": "uint256",
          "name": "vehicleId",
          "type": "uint256"
        }
      ],
      "name": "buyVehicle",
      "outputs": [],
      "stateMutability": "payable",
      "type": "function",
      "payable": true
    },
    {
      "inputs": [
        {
          "internalType": "uint256",
          "name": "vehicleId",
          "type": "uint256"
        }
      ],
      "name": "cancelSale",
      "outputs": [],
      "stateMutability": "nonpayable",
      "type": "function"
    }
  ],
  "bytecode": "0x608060405234801561001057600080fd5b50604051610ed0380380610ed083398101604081905261002f91610054565b600280546001600160a01b0319166001600160a01b0392909216919091179055610084565b60006020828403121561006657600080fd5b81516001600160a01b038116811461007d57600080fd5b9392505050565b610e3d806100936000396000f3fe6080604052600436106100655760003560e01c8063bd94b00511610043578063bd94b005146100c8578063ccb4918d146100e8578063f911f76a1461010b57600080fd5b8063335ada2d1461006a57806336ce0920146100a057806372ed6afb146100b5575b600080fd5b34801561007657600080fd5b5061008a610085366004610cd3565b61014b565b6040516100979190610d1b565b60405180910390f35b6100b36100ae366004610cd3565b610297565b005b6100b36100c3366004610da8565b610670565b3480156100d457600080fd5b506100b36100e3366004610cd3565b6109ec565b3480156100f457600080fd5b506100fd610c34565b604051908152602001610097565b34801561011757600080fd5b5061013b610126366004610cd3565b60009081526003602052604090205460ff1690565b6040519015158152602001610097565b61017a6040805160a0810182526000808252602082018190529181018290526060810182905290608082015290565b60008281526003602052604090205460ff166101f7576040517f08c379a000000000000000000000000000000000000000000000000000000000815260206004820152601b60248201527f546869732076656869636c65206973206e6f74206f6e2073616c65000000000060448201526064015b60405180910390fd5b600082815260056020908152604080832054808452600480845293829020825160a081018452815473ffffffffffffffffffffffffffffffffffffffff908116825260018301541694810194909452600280820154938501939093526003810154606085015293840154909391608084019160ff169081111561027c5761027c610cec565b600281111561028d5761028d610cec565b9052509392505050565b60008181526003602052604090205460ff1661030f576040517f08c379a000000000000000000000000000000000000000000000000000000000815260206004820152601b60248201527f546869732076656869636c65206973206e6f74206f6e2073616c65000000000060448201526064016101ee565b600081815260056020908152604080832054808452600492839052818420600381015460025493517f6352211e000000000000000000000000000000000000000000000000000000008152948501879052919490939192909173ffffffffffffffffffffffffffffffffffffffff90911690636352211e90602401602060405180830381865afa1580156103a7573d6000803e3d6000fd5b505050506040513d601f19601f820116820180604052508101906103cb9190610dca565b905073ffffffffffffffffffffffffffffffffffffffff8116330361044c576040517f08c379a000000000000000000000000000000000000000000000000000000000815260206004820152601c60248201527f596f7520616c7265616479206f776e20746869732076656869636c650000000060448201526064016101ee565b8134146104b5576040517f08c379a000000000000000000000000000000000000000000000000000000000815260206004820152601e60248201527f506c65617365207375626d6974207468652061736b696e67207072696365000060448201526064016101ee565b6002546040517f23b872dd00000000000000000000000000000000000000000000000000000000815273ffffffffffffffffffffffffffffffffffffffff838116600483015233602483015260448201889052909116906323b872dd90606401600060405180830381600087803b15801561052f57600080fd5b505af1158015610543573d6000803e3d6000fd5b505050600086815260036020526040902080547fffffffffffffffffffffffffffffffffffffffffffffffffffffffffffffff00169055506105856001610c44565b60048301805460017fffffffffffffffffffffffffffffffffffffffffffffffffffffffffffffff009091161790556000858152600560205260408082208290555173ffffffffffffffffffffffffffffffffffffffff8316913480156108fc02929091818181858888f19350505050158015610606573d6000803e3d6000fd5b506002546040805133815273ffffffffffffffffffffffffffffffffffffffff909216602083015281018690526060810183905284907fa70b1a854695e7921b122988e216d3a6cd10ed799017c67b1ff231967e6bf56d9060800160405180910390a25050505050565b6002546040517f6352211e00000000000000000000000000000000000000000000000000000000815260048101849052339173ffffffffffffffffffffffffffffffffffffffff1690636352211e90602401602060405180830381865afa1580156106df573d6000803e3d6000fd5b505050506040513d601f19601f820116820180604052508101906107039190610dca565b73ffffffffffffffffffffffffffffffffffffffff16146107a6576040517f08c379a000000000000000000000000000000000000000000000000000000000815260206004820152602160248201527f596f7520617265206e6f74206f776e6572206f6620746869732076656869636c60448201527f650000000000000000000000000000000000000000000000000000000000000060648201526084016101ee565b60008281526003602052604090205460ff161561081f576040517f08c379a000000000000000000000000000000000000000000000000000000000815260206004820152601a60248201527f56656869636c6520697320616c7265616479206f6e2073616c6500000000000060448201526064016101ee565b61082d600080546001019055565b6000546001805481019055600083815260036020908152604080832080547fffffffffffffffffffffffffffffffffffffffffffffffffffffffffffffff0016600117905560058252808320849055805160a08101825233815260025473ffffffffffffffffffffffffffffffffffffffff16928101929092528101859052606081018490529060808201526000828152600460208181526040928390208451815473ffffffffffffffffffffffffffffffffffffffff9182167fffffffffffffffffffffffff00000000000000000000000000000000000000009182161783559286015160018084018054929093169190941617905592840151600280850191909155606085015160038501556080850151928401805490927fffffffffffffffffffffffffffffffffffffffffffffffffffffffffffffff0090911691849081111561097d5761097d610cec565b0217905550506002546040805133815273ffffffffffffffffffffffffffffffffffffffff90921660208301528101859052606081018490528291507f57da7affdd6f59458b648295213ff92ec81119e07a096fbf638290a396c57c25906080015b60405180910390a2505050565b6002546040517f6352211e00000000000000000000000000000000000000000000000000000000815260048101839052339173ffffffffffffffffffffffffffffffffffffffff1690636352211e90602401602060405180830381865afa158015610a5b573d6000803e3d6000fd5b505050506040513d601f19601f82011682018060405250810190610a7f9190610dca565b73ffffffffffffffffffffffffffffffffffffffff1614610b22576040517f08c379a000000000000000000000000000000000000000000000000000000000815260206004820152602160248201527f596f7520617265206e6f74206f776e6572206f6620746869732076656869636c60448201527f650000000000000000000000000000000000000000000000000000000000000060648201526084016101ee565b60008181526003602052604090205460ff16610b9a576040517f08c379a000000000000000000000000000000000000000000000000000000000815260206004820152601660248201527f56656869636c65206973206e6f74206f6e2073616c650000000000000000000060448201526064016101ee565b6000818152600560208181526040808420805480865260048085528387208888526003865284882080547fffffffffffffffffffffffffffffffffffffffffffffffffffffffffffffff009081169091559181018054909216600217909155948452949055805133815291820185905283917f4e4fbd9f26259e82cfb30871ba8fb37535ebc893e81ff81141c1a2dc925d930f91016109df565b6000610c3f60015490565b905090565b805480610cad576040517f08c379a000000000000000000000000000000000000000000000000000000000815260206004820152601b60248201527f436f756e7465723a2064656372656d656e74206f766572666c6f77000000000060448201526064016101ee565b7fffffffffffffffffffffffffffffffffffffffffffffffffffffffffffffffff019055565b600060208284031215610ce557600080fd5b5035919050565b7f4e487b7100000000000000000000000000000000000000000000000000000000600052602160045260246000fd5b600060a08201905073ffffffffffffffffffffffffffffffffffffffff808451168352806020850151166020840152506040830151604083015260608301516060830152608083015160038110610d9b577f4e487b7100000000000000000000000000000000000000000000000000000000600052602160045260246000fd5b8060808401525092915050565b60008060408385031215610dbb57600080fd5b50508035926020909101359150565b600060208284031215610ddc57600080fd5b815173ffffffffffffffffffffffffffffffffffffffff81168114610e0057600080fd5b939250505056fea2646970667358221220b1a2dc9eb461addc31a6f92d3be024f7bb99ebf3cb21d6504f5c0f7560984ba764736f6c634300080f0033",
  "immutableReferences": {},
  "source": "// SPDX-License-Identifier: MIT\npragma solidity >=0.4.22 <0.9.0;\n\nimport \"@openzeppelin/contracts/utils/Counters.sol\";\nimport \"./VehicleRegistrationToken.sol\";\n\ncontract VehicleMarketplace {\n    using Counters for Counters.Counter;\n\n    Counters.Counter private _saleTicketIds;\n    Counters.Counter private _listedItemsCount;\n\n    VehicleRegistrationToken vrt;\n\n    mapping(uint256 => bool) _isVehicleOnSale;\n    mapping(uint256 => SaleTicket) _idToSaleTicket;\n    mapping(uint256 => uint256) _vehicleIdToSaleTicketId;\n\n    constructor(address VRTAddress) {\n        vrt = VehicleRegistrationToken(VRTAddress);\n    }\n\n    enum SaleTicketStatus {\n        PENDING,\n        COMPLETED,\n        CANCELLED\n    }\n\n    struct SaleTicket {\n        address seller;\n        IERC721 tokenContract;\n        uint256 vehicleId;\n        uint256 price;\n        SaleTicketStatus status;\n    }\n\n    event OnSale(\n        uint256 indexed ticketId,\n        address seller,\n        address tokenContract,\n        uint256 vehicleId,\n        uint256 price\n    );\n\n    event Sold(\n        uint256 indexed ticketId,\n        address buyer,\n        address tokenContract,\n        uint256 vehicleId,\n        uint256 price\n    );\n\n    event Cancel(uint256 indexed ticketId, address seller, uint256 vehicleId);\n\n    function listedItemsCount() public view returns (uint256) {\n        return _listedItemsCount.current();\n    }\n\n    function isVehicleOnSale(uint256 vehicleId) public view returns (bool) {\n        return _isVehicleOnSale[vehicleId];\n    }\n\n    function putVehicleOnSale(uint256 vehicleId, uint256 price) public payable {\n        require(\n            vrt.ownerOf(vehicleId) == msg.sender,\n            \"You are not owner of this vehicle\"\n        );\n        require(!_isVehicleOnSale[vehicleId], \"Vehicle is already on sale\");\n        _saleTicketIds.increment();\n        uint256 _ticketId = _saleTicketIds.current();\n        _listedItemsCount.increment();\n        _isVehicleOnSale[vehicleId] = true;\n        _vehicleIdToSaleTicketId[vehicleId] = _ticketId;\n        _idToSaleTicket[_ticketId] = SaleTicket(\n            msg.sender,\n            vrt,\n            vehicleId,\n            price,\n            SaleTicketStatus.PENDING\n        );\n\n        emit OnSale(_ticketId, msg.sender, address(vrt), vehicleId, price);\n    }\n\n    function getVehicleSaleTicket(uint256 vehicleId)\n        public\n        view\n        returns (SaleTicket memory)\n    {\n        require(_isVehicleOnSale[vehicleId], \"This vehicle is not on sale\");\n        uint256 _ticketId = _vehicleIdToSaleTicketId[vehicleId];\n        return _idToSaleTicket[_ticketId];\n    }\n\n    function buyVehicle(uint256 vehicleId) public payable {\n        require(_isVehicleOnSale[vehicleId], \"This vehicle is not on sale\");\n        uint256 _ticketId = _vehicleIdToSaleTicketId[vehicleId];\n        SaleTicket storage saleTicket = _idToSaleTicket[_ticketId];\n        uint256 price = saleTicket.price;\n        address owner = vrt.ownerOf(vehicleId);\n\n        require(msg.sender != owner, \"You already own this vehicle\");\n        require(msg.value == price, \"Please submit the asking price\");\n\n        vrt.transferFrom(owner, msg.sender, vehicleId);\n        _isVehicleOnSale[vehicleId] = false;\n        _listedItemsCount.decrement();\n        saleTicket.status = SaleTicketStatus.COMPLETED;\n        delete _vehicleIdToSaleTicketId[vehicleId];\n\n        payable(owner).transfer(msg.value);\n\n        emit Sold(_ticketId, msg.sender, address(vrt), vehicleId, price);\n    }\n\n    function cancelSale(uint256 vehicleId) public {\n        require(\n            vrt.ownerOf(vehicleId) == msg.sender,\n            \"You are not owner of this vehicle\"\n        );\n        require(_isVehicleOnSale[vehicleId], \"Vehicle is not on sale\");\n        uint256 _ticketId = _vehicleIdToSaleTicketId[vehicleId];\n        SaleTicket storage saleTicket = _idToSaleTicket[_ticketId];\n        _isVehicleOnSale[vehicleId] = false;\n        saleTicket.status = SaleTicketStatus.CANCELLED;\n        delete _vehicleIdToSaleTicketId[vehicleId];\n        emit Cancel(_ticketId, msg.sender, vehicleId);\n    }\n}\n",
  "sourcePath": "/Users/keshav/vrt-core/contracts/VehicleMarketplace.sol",
  "compiler": {
    "name": "solc",
    "version": "0.8.15+commit.e14f2714.Emscripten.clang"
  },
  "schemaVersion": "3.4.16",
  "updatedAt": "2024-05-10T14:54:30.683Z",
  "networkType": "ethereum",
  "devdoc": {
    "kind": "dev",
    "methods": {},
    "version": 1
  },
  "userdoc": {
    "kind": "user",
    "methods": {},
    "version": 1
  }
}