{
  "contractName": "VehicleRegistrationToken",
  "abi": [
    {
      "inputs": [],
      "stateMutability": "nonpayable",
      "type": "constructor"
    },
    {
      "anonymous": false,
      "inputs": [
        {
          "indexed": true,
          "internalType": "address",
          "name": "owner",
          "type": "address"
        },
        {
          "indexed": true,
          "internalType": "address",
          "name": "approved",
          "type": "address"
        },
        {
          "indexed": true,
          "internalType": "uint256",
          "name": "tokenId",
          "type": "uint256"
        }
      ],
      "name": "Approval",
      "type": "event"
    },
    {
      "anonymous": false,
      "inputs": [
        {
          "indexed": true,
          "internalType": "address",
          "name": "owner",
          "type": "address"
        },
        {
          "indexed": true,
          "internalType": "address",
          "name": "operator",
          "type": "address"
        },
        {
          "indexed": false,
          "internalType": "bool",
          "name": "approved",
          "type": "bool"
        }
      ],
      "name": "ApprovalForAll",
      "type": "event"
    },
    {
      "anonymous": false,
      "inputs": [
        {
          "indexed": true,
          "internalType": "address",
          "name": "previousOwner",
          "type": "address"
        },
        {
          "indexed": true,
          "internalType": "address",
          "name": "newOwner",
          "type": "address"
        }
      ],
      "name": "OwnershipTransferred",
      "type": "event"
    },
    {
      "anonymous": false,
      "inputs": [
        {
          "indexed": true,
          "internalType": "address",
          "name": "from",
          "type": "address"
        },
        {
          "indexed": true,
          "internalType": "address",
          "name": "to",
          "type": "address"
        },
        {
          "indexed": true,
          "internalType": "uint256",
          "name": "tokenId",
          "type": "uint256"
        }
      ],
      "name": "Transfer",
      "type": "event"
    },
    {
      "anonymous": false,
      "inputs": [
        {
          "indexed": true,
          "internalType": "uint256",
          "name": "id",
          "type": "uint256"
        },
        {
          "indexed": false,
          "internalType": "uint256",
          "name": "vehicleId",
          "type": "uint256"
        },
        {
          "indexed": false,
          "internalType": "address",
          "name": "authority",
          "type": "address"
        }
      ],
      "name": "VehicleCertificationCanceled",
      "type": "event"
    },
    {
      "anonymous": false,
      "inputs": [
        {
          "indexed": true,
          "internalType": "uint256",
          "name": "id",
          "type": "uint256"
        },
        {
          "indexed": false,
          "internalType": "uint256",
          "name": "code",
          "type": "uint256"
        },
        {
          "indexed": false,
          "internalType": "uint256",
          "name": "vehicleId",
          "type": "uint256"
        },
        {
          "indexed": false,
          "internalType": "address",
          "name": "authority",
          "type": "address"
        },
        {
          "indexed": false,
          "internalType": "string",
          "name": "uri",
          "type": "string"
        }
      ],
      "name": "VehicleCertificationCreated",
      "type": "event"
    },
    {
      "anonymous": false,
      "inputs": [
        {
          "indexed": true,
          "internalType": "uint256",
          "name": "tokenId",
          "type": "uint256"
        },
        {
          "indexed": false,
          "internalType": "address",
          "name": "creator",
          "type": "address"
        },
        {
          "indexed": false,
          "internalType": "string",
          "name": "uri",
          "type": "string"
        }
      ],
      "name": "VehicleTokenCreated",
      "type": "event"
    },
    {
      "inputs": [
        {
          "internalType": "address",
          "name": "to",
          "type": "address"
        },
        {
          "internalType": "uint256",
          "name": "tokenId",
          "type": "uint256"
        }
      ],
      "name": "approve",
      "outputs": [],
      "stateMutability": "nonpayable",
      "type": "function"
    },
    {
      "inputs": [
        {
          "internalType": "address",
          "name": "owner",
          "type": "address"
        }
      ],
      "name": "balanceOf",
      "outputs": [
        {
          "internalType": "uint256",
          "name": "",
          "type": "uint256"
        }
      ],
      "stateMutability": "view",
      "type": "function",
      "constant": true
    },
    {
      "inputs": [
        {
          "internalType": "uint256",
          "name": "tokenId",
          "type": "uint256"
        }
      ],
      "name": "getApproved",
      "outputs": [
        {
          "internalType": "address",
          "name": "",
          "type": "address"
        }
      ],
      "stateMutability": "view",
      "type": "function",
      "constant": true
    },
    {
      "inputs": [],
      "name": "name",
      "outputs": [
        {
          "internalType": "string",
          "name": "",
          "type": "string"
        }
      ],
      "stateMutability": "view",
      "type": "function",
      "constant": true
    },
    {
      "inputs": [],
      "name": "owner",
      "outputs": [
        {
          "internalType": "address",
          "name": "",
          "type": "address"
        }
      ],
      "stateMutability": "view",
      "type": "function",
      "constant": true
    },
    {
      "inputs": [
        {
          "internalType": "uint256",
          "name": "tokenId",
          "type": "uint256"
        }
      ],
      "name": "ownerOf",
      "outputs": [
        {
          "internalType": "address",
          "name": "",
          "type": "address"
        }
      ],
      "stateMutability": "view",
      "type": "function",
      "constant": true
    },
    {
      "inputs": [],
      "name": "renounceOwnership",
      "outputs": [],
      "stateMutability": "nonpayable",
      "type": "function"
    },
    {
      "inputs": [
        {
          "internalType": "address",
          "name": "from",
          "type": "address"
        },
        {
          "internalType": "address",
          "name": "to",
          "type": "address"
        },
        {
          "internalType": "uint256",
          "name": "tokenId",
          "type": "uint256"
        }
      ],
      "name": "safeTransferFrom",
      "outputs": [],
      "stateMutability": "nonpayable",
      "type": "function"
    },
    {
      "inputs": [
        {
          "internalType": "address",
          "name": "from",
          "type": "address"
        },
        {
          "internalType": "address",
          "name": "to",
          "type": "address"
        },
        {
          "internalType": "uint256",
          "name": "tokenId",
          "type": "uint256"
        },
        {
          "internalType": "bytes",
          "name": "_data",
          "type": "bytes"
        }
      ],
      "name": "safeTransferFrom",
      "outputs": [],
      "stateMutability": "nonpayable",
      "type": "function"
    },
    {
      "inputs": [
        {
          "internalType": "address",
          "name": "operator",
          "type": "address"
        },
        {
          "internalType": "bool",
          "name": "approved",
          "type": "bool"
        }
      ],
      "name": "setApprovalForAll",
      "outputs": [],
      "stateMutability": "nonpayable",
      "type": "function"
    },
    {
      "inputs": [
        {
          "internalType": "bytes4",
          "name": "interfaceId",
          "type": "bytes4"
        }
      ],
      "name": "supportsInterface",
      "outputs": [
        {
          "internalType": "bool",
          "name": "",
          "type": "bool"
        }
      ],
      "stateMutability": "view",
      "type": "function",
      "constant": true
    },
    {
      "inputs": [],
      "name": "symbol",
      "outputs": [
        {
          "internalType": "string",
          "name": "",
          "type": "string"
        }
      ],
      "stateMutability": "view",
      "type": "function",
      "constant": true
    },
    {
      "inputs": [
        {
          "internalType": "uint256",
          "name": "tokenId",
          "type": "uint256"
        }
      ],
      "name": "tokenURI",
      "outputs": [
        {
          "internalType": "string",
          "name": "",
          "type": "string"
        }
      ],
      "stateMutability": "view",
      "type": "function",
      "constant": true
    },
    {
      "inputs": [
        {
          "internalType": "address",
          "name": "from",
          "type": "address"
        },
        {
          "internalType": "address",
          "name": "to",
          "type": "address"
        },
        {
          "internalType": "uint256",
          "name": "tokenId",
          "type": "uint256"
        }
      ],
      "name": "transferFrom",
      "outputs": [],
      "stateMutability": "nonpayable",
      "type": "function"
    },
    {
      "inputs": [
        {
          "internalType": "address",
          "name": "newOwner",
          "type": "address"
        }
      ],
      "name": "transferOwnership",
      "outputs": [],
      "stateMutability": "nonpayable",
      "type": "function"
    },
    {
      "inputs": [
        {
          "internalType": "address",
          "name": "marketplaceAddress",
          "type": "address"
        }
      ],
      "name": "setMarketplaceAddress",
      "outputs": [],
      "stateMutability": "nonpayable",
      "type": "function"
    },
    {
      "inputs": [
        {
          "internalType": "uint256",
          "name": "tokenId",
          "type": "uint256"
        }
      ],
      "name": "getVehicleToken",
      "outputs": [
        {
          "components": [
            {
              "internalType": "uint256",
              "name": "tokenId",
              "type": "uint256"
            },
            {
              "internalType": "address",
              "name": "mintingAuthority",
              "type": "address"
            }
          ],
          "internalType": "struct VehicleRegistrationToken.VehicleToken",
          "name": "",
          "type": "tuple"
        }
      ],
      "stateMutability": "view",
      "type": "function",
      "constant": true
    },
    {
      "inputs": [
        {
          "internalType": "string",
          "name": "tokenURI",
          "type": "string"
        }
      ],
      "name": "isURIUsed",
      "outputs": [
        {
          "internalType": "bool",
          "name": "",
          "type": "bool"
        }
      ],
      "stateMutability": "view",
      "type": "function",
      "constant": true
    },
    {
      "inputs": [],
      "name": "totalSupply",
      "outputs": [
        {
          "internalType": "uint256",
          "name": "",
          "type": "uint256"
        }
      ],
      "stateMutability": "view",
      "type": "function",
      "constant": true
    },
    {
      "inputs": [
        {
          "internalType": "string",
          "name": "tokenURI",
          "type": "string"
        }
      ],
      "name": "mintToken",
      "outputs": [
        {
          "internalType": "uint256",
          "name": "",
          "type": "uint256"
        }
      ],
      "stateMutability": "nonpayable",
      "type": "function"
    },
    {
      "inputs": [
        {
          "internalType": "address",
          "name": "owner",
          "type": "address"
        },
        {
          "internalType": "address",
          "name": "operator",
          "type": "address"
        }
      ],
      "name": "isApprovedForAll",
      "outputs": [
        {
          "internalType": "bool",
          "name": "",
          "type": "bool"
        }
      ],
      "stateMutability": "view",
      "type": "function",
      "constant": true
    },
    {
      "inputs": [
        {
          "internalType": "uint256",
          "name": "key",
          "type": "uint256"
        }
      ],
      "name": "tokenExists",
      "outputs": [
        {
          "internalType": "bool",
          "name": "",
          "type": "bool"
        }
      ],
      "stateMutability": "view",
      "type": "function",
      "constant": true
    },
    {
      "inputs": [
        {
          "internalType": "uint256",
          "name": "key",
          "type": "uint256"
        }
      ],
      "name": "certificationExists",
      "outputs": [
        {
          "internalType": "bool",
          "name": "",
          "type": "bool"
        }
      ],
      "stateMutability": "view",
      "type": "function",
      "constant": true
    },
    {
      "inputs": [
        {
          "internalType": "uint256",
          "name": "vehicleId",
          "type": "uint256"
        },
        {
          "internalType": "uint256",
          "name": "code",
          "type": "uint256"
        },
        {
          "internalType": "string",
          "name": "certificationURI",
          "type": "string"
        }
      ],
      "name": "addCertification",
      "outputs": [
        {
          "internalType": "uint256",
          "name": "",
          "type": "uint256"
        }
      ],
      "stateMutability": "nonpayable",
      "type": "function"
    },
    {
      "inputs": [
        {
          "internalType": "uint256",
          "name": "certificationId",
          "type": "uint256"
        }
      ],
      "name": "deleteCertification",
      "outputs": [],
      "stateMutability": "nonpayable",
      "type": "function"
    }
  ],
  "bytecode": "0x60806040523480156200001157600080fd5b506040518060400160405280601a81526020017f56656869636c6520526567697374726174696f6e20546f6b656e0000000000008152506040518060400160405280600381526020016215949560ea1b8152508160009081620000759190620001a2565b506001620000848282620001a2565b505050620000a16200009b620000a760201b60201c565b620000ab565b6200026e565b3390565b600780546001600160a01b038381166001600160a01b0319831681179093556040519116919082907f8be0079c531659141344cd1fd0a4f28419497f9722a3daafe3b4186f6b6457e090600090a35050565b634e487b7160e01b600052604160045260246000fd5b600181811c908216806200012857607f821691505b6020821081036200014957634e487b7160e01b600052602260045260246000fd5b50919050565b601f8211156200019d57600081815260208120601f850160051c81016020861015620001785750805b601f850160051c820191505b81811015620001995782815560010162000184565b5050505b505050565b81516001600160401b03811115620001be57620001be620000fd565b620001d681620001cf845462000113565b846200014f565b602080601f8311600181146200020e5760008415620001f55750858301515b600019600386901b1c1916600185901b17855562000199565b600085815260208120601f198616915b828110156200023f578886015182559484019460019091019084016200021e565b50858210156200025e5787850151600019600388901b60f8161c191681555b5050505050600190811b01905550565b612c81806200027e6000396000f3fe608060405234801561001057600080fd5b50600436106101a25760003560e01c806370a08231116100ee578063a22cb46511610097578063c87b56dd11610071578063c87b56dd1461042e578063d659de8914610441578063e985e9c514610454578063f2fde38b1461046757600080fd5b8063a22cb465146103b3578063b47cc556146103c6578063b88d4fde1461041b57600080fd5b806385bfe9a7116100c857806385bfe9a7146102fa5780638da5cb5b1461038d57806395d89b41146103ab57600080fd5b806370a08231146102cc578063715018a6146102df5780637c6d908b146102e757600080fd5b806318160ddd1161015057806342842e0e1161012a57806342842e0e146102935780634b3168ca146102a65780636352211e146102b957600080fd5b806318160ddd1461025757806323b872dd1461026d57806333eba49a1461028057600080fd5b8063081812fc11610181578063081812fc146101f7578063095ea7b31461022f5780630a9a54531461024457600080fd5b8062923f9e146101a757806301ffc9a7146101cf57806306fdde03146101e2575b600080fd5b6101ba6101b536600461246f565b61047a565b60405190151581526020015b60405180910390f35b6101ba6101dd3660046124b6565b61049e565b6101ea610583565b6040516101c69190612549565b61020a61020536600461246f565b610615565b60405173ffffffffffffffffffffffffffffffffffffffff90911681526020016101c6565b61024261023d366004612585565b6106f4565b005b61024261025236600461246f565b610880565b61025f610af4565b6040519081526020016101c6565b61024261027b3660046125af565b610b04565b61025f61028e3660046126ce565b610ba5565b6102426102a13660046125af565b610d42565b61025f6102b4366004612703565b610d5d565b61020a6102c736600461246f565b610f98565b61025f6102da366004612753565b61104a565b610242611118565b6101ba6102f53660046126ce565b6111a5565b61035c61030836600461246f565b6040805180820190915260008082526020820152506000908152600c60209081526040918290208251808401909352805483526001015473ffffffffffffffffffffffffffffffffffffffff169082015290565b604080518251815260209283015173ffffffffffffffffffffffffffffffffffffffff1692810192909252016101c6565b60075473ffffffffffffffffffffffffffffffffffffffff1661020a565b6101ea6111d5565b6102426103c136600461276e565b6111e4565b6102426103d4366004612753565b600880547fffffffffffffffffffffffff00000000000000000000000000000000000000001673ffffffffffffffffffffffffffffffffffffffff92909216919091179055565b6102426104293660046127aa565b6111f3565b6101ea61043c36600461246f565b61129b565b6101ba61044f36600461246f565b611454565b6101ba610462366004612826565b611470565b610242610475366004612753565b6114dc565b6000818152600c60205260408120541561049657506001919050565b506000919050565b60007fffffffff0000000000000000000000000000000000000000000000000000000082167f80ac58cd00000000000000000000000000000000000000000000000000000000148061053157507fffffffff0000000000000000000000000000000000000000000000000000000082167f5b5e139f00000000000000000000000000000000000000000000000000000000145b8061057d57507f01ffc9a7000000000000000000000000000000000000000000000000000000007fffffffff000000000000000000000000000000000000000000000000000000008316145b92915050565b60606000805461059290612859565b80601f01602080910402602001604051908101604052809291908181526020018280546105be90612859565b801561060b5780601f106105e05761010080835404028352916020019161060b565b820191906000526020600020905b8154815290600101906020018083116105ee57829003601f168201915b5050505050905090565b60008181526002602052604081205473ffffffffffffffffffffffffffffffffffffffff166106cb576040517f08c379a000000000000000000000000000000000000000000000000000000000815260206004820152602c60248201527f4552433732313a20617070726f76656420717565727920666f72206e6f6e657860448201527f697374656e7420746f6b656e000000000000000000000000000000000000000060648201526084015b60405180910390fd5b5060009081526004602052604090205473ffffffffffffffffffffffffffffffffffffffff1690565b60006106ff82610f98565b90508073ffffffffffffffffffffffffffffffffffffffff168373ffffffffffffffffffffffffffffffffffffffff16036107bc576040517f08c379a000000000000000000000000000000000000000000000000000000000815260206004820152602160248201527f4552433732313a20617070726f76616c20746f2063757272656e74206f776e6560448201527f720000000000000000000000000000000000000000000000000000000000000060648201526084016106c2565b3373ffffffffffffffffffffffffffffffffffffffff821614806107e557506107e58133611470565b610871576040517f08c379a000000000000000000000000000000000000000000000000000000000815260206004820152603860248201527f4552433732313a20617070726f76652063616c6c6572206973206e6f74206f7760448201527f6e6572206e6f7220617070726f76656420666f7220616c6c000000000000000060648201526084016106c2565b61087b838361160c565b505050565b61088981611454565b6108ef576040517f08c379a000000000000000000000000000000000000000000000000000000000815260206004820152601560248201527f546f6b656e20646f6573206e6f7420657869737473000000000000000000000060448201526064016106c2565b6000818152600d60209081526040808320815160808101835281548152600182015493810193909352600281015473ffffffffffffffffffffffffffffffffffffffff169183019190915260038101805460608401919061094f90612859565b80601f016020809104026020016040519081016040528092919081815260200182805461097b90612859565b80156109c85780601f1061099d576101008083540402835291602001916109c8565b820191906000526020600020905b8154815290600101906020018083116109ab57829003601f168201915b50505050508152505090506000600b82606001516040516109e991906128ac565b908152604080516020928190038301902080547fffffffffffffffffffffffffffffffffffffffffffffffffffffffffffffff0016931515939093179092556000848152600e825282812054600d909252918220828155600181018390556002810180547fffffffffffffffffffffffff00000000000000000000000000000000000000001690559091610a806003830182612421565b50506000838152600e60205260408082209190915582810151905184917f30b44172bb39d24214c72171734172dee1cccd6b287f4e9c46277fa41102e77991610ae79185825273ffffffffffffffffffffffffffffffffffffffff16602082015260400190565b60405180910390a2505050565b6000610aff60095490565b905090565b610b0e33826116ac565b610b9a576040517f08c379a000000000000000000000000000000000000000000000000000000000815260206004820152603160248201527f4552433732313a207472616e736665722063616c6c6572206973206e6f74206f60448201527f776e6572206e6f7220617070726f76656400000000000000000000000000000060648201526084016106c2565b61087b8383836117e7565b6000610bb0826111a5565b15610c17576040517f08c379a000000000000000000000000000000000000000000000000000000000815260206004820152601860248201527f546f6b656e2055524920616c726561647920657869737473000000000000000060448201526064016106c2565b610c25600980546001019055565b6000610c3060095490565b9050807fd18b6a06ada6b602ba768a047310682c9f4aa160a227c1bd2db7cd1c153c3bdb3385604051610c649291906128c8565b60405180910390a2610c763382611a4e565b610c808184611a68565b6040805180820182528281523360208083019182526000858152600c9091528390209151825551600191820180547fffffffffffffffffffffffff00000000000000000000000000000000000000001673ffffffffffffffffffffffffffffffffffffffff9092169190911790559051600b90610cfe9086906128ac565b90815260405190819003602001902080549115157fffffffffffffffffffffffffffffffffffffffffffffffffffffffffffffff0090921691909117905592915050565b61087b838383604051806020016040528060008152506111f3565b6000610d68826111a5565b15610dcf576040517f08c379a000000000000000000000000000000000000000000000000000000000815260206004820152601860248201527f546f6b656e2055524920616c726561647920657869737473000000000000000060448201526064016106c2565b610dd88461047a565b610e3e576040517f08c379a000000000000000000000000000000000000000000000000000000000815260206004820152601560248201527f546f6b656e20646f6573206e6f7420657869737473000000000000000000000060448201526064016106c2565b610e4c600a80546001019055565b6000610e57600a5490565b6000818152600e60209081526040808320899055805160808101825284815280830189815233828401908152606083018a8152878752600d90955292909420815181559351600185015590516002840180547fffffffffffffffffffffffff00000000000000000000000000000000000000001673ffffffffffffffffffffffffffffffffffffffff9092169190911790559051929350916003820190610efe9082612945565b509050506001600b84604051610f1491906128ac565b90815260405190819003602001812080549215157fffffffffffffffffffffffffffffffffffffffffffffffffffffffffffffff009093169290921790915581907f80164b4fd46f0eb2d541a04756c5ebed741423ff02b3105100d6e1834f90010f90610f88908790899033908990612a5f565b60405180910390a2949350505050565b60008181526002602052604081205473ffffffffffffffffffffffffffffffffffffffff168061057d576040517f08c379a000000000000000000000000000000000000000000000000000000000815260206004820152602960248201527f4552433732313a206f776e657220717565727920666f72206e6f6e657869737460448201527f656e7420746f6b656e000000000000000000000000000000000000000000000060648201526084016106c2565b600073ffffffffffffffffffffffffffffffffffffffff82166110ef576040517f08c379a000000000000000000000000000000000000000000000000000000000815260206004820152602a60248201527f4552433732313a2062616c616e636520717565727920666f7220746865207a6560448201527f726f20616464726573730000000000000000000000000000000000000000000060648201526084016106c2565b5073ffffffffffffffffffffffffffffffffffffffff1660009081526003602052604090205490565b60075473ffffffffffffffffffffffffffffffffffffffff163314611199576040517f08c379a000000000000000000000000000000000000000000000000000000000815260206004820181905260248201527f4f776e61626c653a2063616c6c6572206973206e6f7420746865206f776e657260448201526064016106c2565b6111a36000611b31565b565b6000600b826040516111b791906128ac565b9081526040519081900360200190205460ff16151560011492915050565b60606001805461059290612859565b6111ef338383611ba8565b5050565b6111fd33836116ac565b611289576040517f08c379a000000000000000000000000000000000000000000000000000000000815260206004820152603160248201527f4552433732313a207472616e736665722063616c6c6572206973206e6f74206f60448201527f776e6572206e6f7220617070726f76656400000000000000000000000000000060648201526084016106c2565b61129584848484611cd5565b50505050565b60008181526002602052604090205460609073ffffffffffffffffffffffffffffffffffffffff1661134f576040517f08c379a000000000000000000000000000000000000000000000000000000000815260206004820152603160248201527f45524337323155524953746f726167653a2055524920717565727920666f722060448201527f6e6f6e6578697374656e7420746f6b656e00000000000000000000000000000060648201526084016106c2565b6000828152600660205260408120805461136890612859565b80601f016020809104026020016040519081016040528092919081815260200182805461139490612859565b80156113e15780601f106113b6576101008083540402835291602001916113e1565b820191906000526020600020905b8154815290600101906020018083116113c457829003601f168201915b5050505050905060006113ff60408051602081019091526000815290565b90508051600003611411575092915050565b81511561144357808260405160200161142b929190612aa4565b60405160208183030381529060405292505050919050565b61144c84611d78565b949350505050565b6000818152600d60205260408120541561049657506001919050565b60085460009073ffffffffffffffffffffffffffffffffffffffff9081169083160361149e5750600161057d565b73ffffffffffffffffffffffffffffffffffffffff80841660009081526005602090815260408083209386168352929052205460ff165b9392505050565b60075473ffffffffffffffffffffffffffffffffffffffff16331461155d576040517f08c379a000000000000000000000000000000000000000000000000000000000815260206004820181905260248201527f4f776e61626c653a2063616c6c6572206973206e6f7420746865206f776e657260448201526064016106c2565b73ffffffffffffffffffffffffffffffffffffffff8116611600576040517f08c379a000000000000000000000000000000000000000000000000000000000815260206004820152602660248201527f4f776e61626c653a206e6577206f776e657220697320746865207a65726f206160448201527f646472657373000000000000000000000000000000000000000000000000000060648201526084016106c2565b61160981611b31565b50565b600081815260046020526040902080547fffffffffffffffffffffffff00000000000000000000000000000000000000001673ffffffffffffffffffffffffffffffffffffffff8416908117909155819061166682610f98565b73ffffffffffffffffffffffffffffffffffffffff167f8c5be1e5ebec7d5bd14f71427d1e84f3dd0314c0f7b2291e5b200ac8c7c3b92560405160405180910390a45050565b60008181526002602052604081205473ffffffffffffffffffffffffffffffffffffffff1661175d576040517f08c379a000000000000000000000000000000000000000000000000000000000815260206004820152602c60248201527f4552433732313a206f70657261746f7220717565727920666f72206e6f6e657860448201527f697374656e7420746f6b656e000000000000000000000000000000000000000060648201526084016106c2565b600061176883610f98565b90508073ffffffffffffffffffffffffffffffffffffffff168473ffffffffffffffffffffffffffffffffffffffff1614806117d757508373ffffffffffffffffffffffffffffffffffffffff166117bf84610615565b73ffffffffffffffffffffffffffffffffffffffff16145b8061144c575061144c8185611470565b8273ffffffffffffffffffffffffffffffffffffffff1661180782610f98565b73ffffffffffffffffffffffffffffffffffffffff16146118aa576040517f08c379a000000000000000000000000000000000000000000000000000000000815260206004820152602560248201527f4552433732313a207472616e736665722066726f6d20696e636f72726563742060448201527f6f776e657200000000000000000000000000000000000000000000000000000060648201526084016106c2565b73ffffffffffffffffffffffffffffffffffffffff821661194c576040517f08c379a0000000000000000000000000000000000000000000000000000000008152602060048201526024808201527f4552433732313a207472616e7366657220746f20746865207a65726f2061646460448201527f726573730000000000000000000000000000000000000000000000000000000060648201526084016106c2565b61195760008261160c565b73ffffffffffffffffffffffffffffffffffffffff8316600090815260036020526040812080546001929061198d908490612b02565b909155505073ffffffffffffffffffffffffffffffffffffffff821660009081526003602052604081208054600192906119c8908490612b19565b909155505060008181526002602052604080822080547fffffffffffffffffffffffff00000000000000000000000000000000000000001673ffffffffffffffffffffffffffffffffffffffff86811691821790925591518493918716917fddf252ad1be2c89b69c2b068fc378daa952ba7f163c4a11628f55a4df523b3ef91a4505050565b6111ef828260405180602001604052806000815250611e94565b60008281526002602052604090205473ffffffffffffffffffffffffffffffffffffffff16611b19576040517f08c379a000000000000000000000000000000000000000000000000000000000815260206004820152602e60248201527f45524337323155524953746f726167653a2055524920736574206f66206e6f6e60448201527f6578697374656e7420746f6b656e00000000000000000000000000000000000060648201526084016106c2565b600082815260066020526040902061087b8282612945565b6007805473ffffffffffffffffffffffffffffffffffffffff8381167fffffffffffffffffffffffff0000000000000000000000000000000000000000831681179093556040519116919082907f8be0079c531659141344cd1fd0a4f28419497f9722a3daafe3b4186f6b6457e090600090a35050565b8173ffffffffffffffffffffffffffffffffffffffff168373ffffffffffffffffffffffffffffffffffffffff1603611c3d576040517f08c379a000000000000000000000000000000000000000000000000000000000815260206004820152601960248201527f4552433732313a20617070726f766520746f2063616c6c65720000000000000060448201526064016106c2565b73ffffffffffffffffffffffffffffffffffffffff83811660008181526005602090815260408083209487168084529482529182902080547fffffffffffffffffffffffffffffffffffffffffffffffffffffffffffffff001686151590811790915591519182527f17307eab39ab6107e8899845ad3d59bd9653f200f220920489ca2b5937696c31910160405180910390a3505050565b611ce08484846117e7565b611cec84848484611f37565b611295576040517f08c379a000000000000000000000000000000000000000000000000000000000815260206004820152603260248201527f4552433732313a207472616e7366657220746f206e6f6e20455243373231526560448201527f63656976657220696d706c656d656e746572000000000000000000000000000060648201526084016106c2565b60008181526002602052604090205460609073ffffffffffffffffffffffffffffffffffffffff16611e2c576040517f08c379a000000000000000000000000000000000000000000000000000000000815260206004820152602f60248201527f4552433732314d657461646174613a2055524920717565727920666f72206e6f60448201527f6e6578697374656e7420746f6b656e000000000000000000000000000000000060648201526084016106c2565b6000611e4360408051602081019091526000815290565b90506000815111611e6357604051806020016040528060008152506114d5565b80611e6d8461212a565b604051602001611e7e929190612aa4565b6040516020818303038152906040529392505050565b611e9e838361225f565b611eab6000848484611f37565b61087b576040517f08c379a000000000000000000000000000000000000000000000000000000000815260206004820152603260248201527f4552433732313a207472616e7366657220746f206e6f6e20455243373231526560448201527f63656976657220696d706c656d656e746572000000000000000000000000000060648201526084016106c2565b600073ffffffffffffffffffffffffffffffffffffffff84163b1561211f576040517f150b7a0200000000000000000000000000000000000000000000000000000000815273ffffffffffffffffffffffffffffffffffffffff85169063150b7a0290611fae903390899088908890600401612b31565b6020604051808303816000875af1925050508015612007575060408051601f3d9081017fffffffffffffffffffffffffffffffffffffffffffffffffffffffffffffffe016820190925261200491810190612b70565b60015b6120d4573d808015612035576040519150601f19603f3d011682016040523d82523d6000602084013e61203a565b606091505b5080516000036120cc576040517f08c379a000000000000000000000000000000000000000000000000000000000815260206004820152603260248201527f4552433732313a207472616e7366657220746f206e6f6e20455243373231526560448201527f63656976657220696d706c656d656e746572000000000000000000000000000060648201526084016106c2565b805181602001fd5b7fffffffff00000000000000000000000000000000000000000000000000000000167f150b7a020000000000000000000000000000000000000000000000000000000014905061144c565b506001949350505050565b60608160000361216d57505060408051808201909152600181527f3000000000000000000000000000000000000000000000000000000000000000602082015290565b8160005b8115612197578061218181612b8d565b91506121909050600a83612bf4565b9150612171565b60008167ffffffffffffffff8111156121b2576121b26125eb565b6040519080825280601f01601f1916602001820160405280156121dc576020820181803683370190505b5090505b841561144c576121f1600183612b02565b91506121fe600a86612c08565b612209906030612b19565b60f81b81838151811061221e5761221e612c1c565b60200101907effffffffffffffffffffffffffffffffffffffffffffffffffffffffffffff1916908160001a905350612258600a86612bf4565b94506121e0565b73ffffffffffffffffffffffffffffffffffffffff82166122dc576040517f08c379a000000000000000000000000000000000000000000000000000000000815260206004820181905260248201527f4552433732313a206d696e7420746f20746865207a65726f206164647265737360448201526064016106c2565b60008181526002602052604090205473ffffffffffffffffffffffffffffffffffffffff1615612368576040517f08c379a000000000000000000000000000000000000000000000000000000000815260206004820152601c60248201527f4552433732313a20746f6b656e20616c7265616479206d696e7465640000000060448201526064016106c2565b73ffffffffffffffffffffffffffffffffffffffff8216600090815260036020526040812080546001929061239e908490612b19565b909155505060008181526002602052604080822080547fffffffffffffffffffffffff00000000000000000000000000000000000000001673ffffffffffffffffffffffffffffffffffffffff861690811790915590518392907fddf252ad1be2c89b69c2b068fc378daa952ba7f163c4a11628f55a4df523b3ef908290a45050565b50805461242d90612859565b6000825580601f1061243d575050565b601f01602090049060005260206000209081019061160991905b8082111561246b5760008155600101612457565b5090565b60006020828403121561248157600080fd5b5035919050565b7fffffffff000000000000000000000000000000000000000000000000000000008116811461160957600080fd5b6000602082840312156124c857600080fd5b81356114d581612488565b60005b838110156124ee5781810151838201526020016124d6565b838111156112955750506000910152565b600081518084526125178160208601602086016124d3565b601f017fffffffffffffffffffffffffffffffffffffffffffffffffffffffffffffffe0169290920160200192915050565b6020815260006114d560208301846124ff565b803573ffffffffffffffffffffffffffffffffffffffff8116811461258057600080fd5b919050565b6000806040838503121561259857600080fd5b6125a18361255c565b946020939093013593505050565b6000806000606084860312156125c457600080fd5b6125cd8461255c565b92506125db6020850161255c565b9150604084013590509250925092565b7f4e487b7100000000000000000000000000000000000000000000000000000000600052604160045260246000fd5b600067ffffffffffffffff80841115612635576126356125eb565b604051601f85017fffffffffffffffffffffffffffffffffffffffffffffffffffffffffffffffe0908116603f0116810190828211818310171561267b5761267b6125eb565b8160405280935085815286868601111561269457600080fd5b858560208301376000602087830101525050509392505050565b600082601f8301126126bf57600080fd5b6114d58383356020850161261a565b6000602082840312156126e057600080fd5b813567ffffffffffffffff8111156126f757600080fd5b61144c848285016126ae565b60008060006060848603121561271857600080fd5b8335925060208401359150604084013567ffffffffffffffff81111561273d57600080fd5b612749868287016126ae565b9150509250925092565b60006020828403121561276557600080fd5b6114d58261255c565b6000806040838503121561278157600080fd5b61278a8361255c565b91506020830135801515811461279f57600080fd5b809150509250929050565b600080600080608085870312156127c057600080fd5b6127c98561255c565b93506127d76020860161255c565b925060408501359150606085013567ffffffffffffffff8111156127fa57600080fd5b8501601f8101871361280b57600080fd5b61281a8782356020840161261a565b91505092959194509250565b6000806040838503121561283957600080fd5b6128428361255c565b91506128506020840161255c565b90509250929050565b600181811c9082168061286d57607f821691505b6020821081036128a6577f4e487b7100000000000000000000000000000000000000000000000000000000600052602260045260246000fd5b50919050565b600082516128be8184602087016124d3565b9190910192915050565b73ffffffffffffffffffffffffffffffffffffffff8316815260406020820152600061144c60408301846124ff565b601f82111561087b57600081815260208120601f850160051c8101602086101561291e5750805b601f850160051c820191505b8181101561293d5782815560010161292a565b505050505050565b815167ffffffffffffffff81111561295f5761295f6125eb565b6129738161296d8454612859565b846128f7565b602080601f8311600181146129c657600084156129905750858301515b7fffffffffffffffffffffffffffffffffffffffffffffffffffffffffffffffff600386901b1c1916600185901b17855561293d565b6000858152602081207fffffffffffffffffffffffffffffffffffffffffffffffffffffffffffffffe08616915b82811015612a13578886015182559484019460019091019084016129f4565b5085821015612a4f57878501517fffffffffffffffffffffffffffffffffffffffffffffffffffffffffffffffff600388901b60f8161c191681555b5050505050600190811b01905550565b84815283602082015273ffffffffffffffffffffffffffffffffffffffff83166040820152608060608201526000612a9a60808301846124ff565b9695505050505050565b60008351612ab68184602088016124d3565b835190830190612aca8183602088016124d3565b01949350505050565b7f4e487b7100000000000000000000000000000000000000000000000000000000600052601160045260246000fd5b600082821015612b1457612b14612ad3565b500390565b60008219821115612b2c57612b2c612ad3565b500190565b600073ffffffffffffffffffffffffffffffffffffffff808716835280861660208401525083604083015260806060830152612a9a60808301846124ff565b600060208284031215612b8257600080fd5b81516114d581612488565b60007fffffffffffffffffffffffffffffffffffffffffffffffffffffffffffffffff8203612bbe57612bbe612ad3565b5060010190565b7f4e487b7100000000000000000000000000000000000000000000000000000000600052601260045260246000fd5b600082612c0357612c03612bc5565b500490565b600082612c1757612c17612bc5565b500690565b7f4e487b7100000000000000000000000000000000000000000000000000000000600052603260045260246000fdfea2646970667358221220552246d1ae82e76e8b784d449072fdc6b79ddaab477eb8cdd5df70f3c70d7c4c64736f6c634300080f0033",
  "immutableReferences": {},
  "source": "// SPDX-License-Identifier: MIT\npragma solidity >=0.4.22 <0.9.0;\n\nimport \"@openzeppelin/contracts/token/ERC721/extensions/ERC721URIStorage.sol\";\nimport \"@openzeppelin/contracts/utils/Counters.sol\";\nimport \"@openzeppelin/contracts/access/Ownable.sol\";\n\ncontract VehicleRegistrationToken is ERC721URIStorage, Ownable {\n    using Counters for Counters.Counter;\n    address _marketplaceAddress;\n\n    constructor() ERC721(\"Vehicle Registration Token\", \"VRT\") {}\n\n    struct VehicleToken {\n        uint256 tokenId;\n        address mintingAuthority;\n    }\n\n    struct VehicleCertification {\n        uint256 id;\n        uint256 code;\n        address authority;\n        string uri;\n    }\n\n    event VehicleTokenCreated(\n        uint256 indexed tokenId,\n        address creator,\n        string uri\n    );\n\n    event VehicleCertificationCreated(\n        uint256 indexed id,\n        uint256 code,\n        uint256 vehicleId,\n        address authority,\n        string uri\n    );\n\n    event VehicleCertificationCanceled(\n        uint256 indexed id,\n        uint256 vehicleId,\n        address authority\n    );\n\n    Counters.Counter private _tokenIds;\n    Counters.Counter private _certificationIds;\n\n    mapping(string => bool) private _usedURIs;\n    mapping(uint256 => VehicleToken) private _idToVehicleToken;\n\n    mapping(uint256 => VehicleCertification) private _idToVehicleCertification;\n    mapping(uint256 => uint256) private _certificationIdToVehicleTokenId;\n\n    function setMarketplaceAddress(address marketplaceAddress) public {\n        _marketplaceAddress = marketplaceAddress;\n    }\n\n    function getVehicleToken(uint256 tokenId)\n        public\n        view\n        returns (VehicleToken memory)\n    {\n        return _idToVehicleToken[tokenId];\n    }\n\n    function isURIUsed(string memory tokenURI) public view returns (bool) {\n        return _usedURIs[tokenURI] == true;\n    }\n\n    function totalSupply() public view returns (uint256) {\n        return _tokenIds.current();\n    }\n\n    function mintToken(string memory tokenURI) public returns (uint256) {\n        require(!isURIUsed(tokenURI), \"Token URI already exists\");\n\n        _tokenIds.increment();\n\n        uint256 newTokenId = _tokenIds.current();\n\n        emit VehicleTokenCreated(newTokenId, msg.sender, tokenURI);\n        _safeMint(msg.sender, newTokenId);\n        _setTokenURI(newTokenId, tokenURI);\n        _idToVehicleToken[newTokenId] = VehicleToken(newTokenId, msg.sender);\n        _usedURIs[tokenURI] = true;\n        return newTokenId;\n    }\n\n    function isApprovedForAll(address owner, address operator)\n        public\n        view\n        override\n        returns (bool)\n    {\n        if (operator == _marketplaceAddress) {\n            return true;\n        }\n\n        return super.isApprovedForAll(owner, operator);\n    }\n\n    function tokenExists(uint256 key) public view returns (bool) {\n        // check if non-zero value in struct is zero\n        // if it is zero then you know that myMapping[key] doesn't yet exist\n        if (_idToVehicleToken[key].tokenId != 0) {\n            return true;\n        }\n        return false;\n    }\n\n    function certificationExists(uint256 key) public view returns (bool) {\n        // check if non-zero value in struct is zero\n        // if it is zero then you know that myMapping[key] doesn't yet exist\n        if (_idToVehicleCertification[key].id != 0) {\n            return true;\n        }\n        return false;\n    }\n\n    function addCertification(\n        uint256 vehicleId,\n        uint256 code,\n        string memory certificationURI\n    ) public returns (uint256) {\n        require(!isURIUsed(certificationURI), \"Token URI already exists\");\n        require(tokenExists(vehicleId), \"Token does not exists\");\n        _certificationIds.increment();\n        uint256 newCertificationId = _certificationIds.current();\n        _certificationIdToVehicleTokenId[newCertificationId] = vehicleId;\n        _idToVehicleCertification[newCertificationId] = VehicleCertification(\n            newCertificationId,\n            code,\n            msg.sender,\n            certificationURI\n        );\n        _usedURIs[certificationURI] = true;\n        emit VehicleCertificationCreated(\n            newCertificationId,\n            code,\n            vehicleId,\n            msg.sender,\n            certificationURI\n        );\n        return newCertificationId;\n    }\n\n    function deleteCertification(uint256 certificationId) public {\n        require(certificationExists(certificationId), \"Token does not exists\");\n        VehicleCertification\n            memory vehicleCertification = _idToVehicleCertification[\n                certificationId\n            ];\n        _usedURIs[vehicleCertification.uri] = false;\n        uint256 vehicleId = _certificationIdToVehicleTokenId[certificationId];\n        delete _idToVehicleCertification[certificationId];\n        delete _certificationIdToVehicleTokenId[certificationId];\n        emit VehicleCertificationCanceled(\n            certificationId,\n            vehicleId,\n            vehicleCertification.authority\n        );\n    }\n}\n",
  "sourcePath": "/Users/keshav/vrt-core/contracts/VehicleRegistrationToken.sol",
  "compiler": {
    "name": "solc",
    "version": "0.8.15+commit.e14f2714.Emscripten.clang"
  },
  "schemaVersion": "3.4.16",
  "updatedAt": "2024-05-10T14:54:30.688Z",
  "networkType": "ethereum",
  "devdoc": {
    "kind": "dev",
    "methods": {
      "approve(address,uint256)": {
        "details": "See {IERC721-approve}."
      },
      "balanceOf(address)": {
        "details": "See {IERC721-balanceOf}."
      },
      "getApproved(uint256)": {
        "details": "See {IERC721-getApproved}."
      },
      "isApprovedForAll(address,address)": {
        "details": "See {IERC721-isApprovedForAll}."
      },
      "name()": {
        "details": "See {IERC721Metadata-name}."
      },
      "owner()": {
        "details": "Returns the address of the current owner."
      },
      "ownerOf(uint256)": {
        "details": "See {IERC721-ownerOf}."
      },
      "renounceOwnership()": {
        "details": "Leaves the contract without owner. It will not be possible to call `onlyOwner` functions anymore. Can only be called by the current owner. NOTE: Renouncing ownership will leave the contract without an owner, thereby removing any functionality that is only available to the owner."
      },
      "safeTransferFrom(address,address,uint256)": {
        "details": "See {IERC721-safeTransferFrom}."
      },
      "safeTransferFrom(address,address,uint256,bytes)": {
        "details": "See {IERC721-safeTransferFrom}."
      },
      "setApprovalForAll(address,bool)": {
        "details": "See {IERC721-setApprovalForAll}."
      },
      "supportsInterface(bytes4)": {
        "details": "See {IERC165-supportsInterface}."
      },
      "symbol()": {
        "details": "See {IERC721Metadata-symbol}."
      },
      "tokenURI(uint256)": {
        "details": "See {IERC721Metadata-tokenURI}."
      },
      "transferFrom(address,address,uint256)": {
        "details": "See {IERC721-transferFrom}."
      },
      "transferOwnership(address)": {
        "details": "Transfers ownership of the contract to a new account (`newOwner`). Can only be called by the current owner."
      }
    },
    "version": 1
  },
  "userdoc": {
    "kind": "user",
    "methods": {},
    "version": 1
  }
}